{
  "_format": "hh-sol-artifact-1",
  "contractName": "AyurvedicTraceability",
  "sourceName": "AyurvedicTraceability.sol",
  "abi": [
    {
      "anonymous": false,
      "inputs": [
        {
          "indexed": false,
          "internalType": "uint256",
          "name": "id",
          "type": "uint256"
        },
        {
          "indexed": false,
          "internalType": "uint256[]",
          "name": "herbIds",
          "type": "uint256[]"
        },
        {
          "indexed": false,
          "internalType": "string",
          "name": "processDetails",
          "type": "string"
        }
      ],
      "name": "BatchCreated",
      "type": "event"
    },
    {
      "anonymous": false,
      "inputs": [
        {
          "indexed": false,
          "internalType": "uint256",
          "name": "id",
          "type": "uint256"
        },
        {
          "indexed": false,
          "internalType": "string",
          "name": "name",
          "type": "string"
        },
        {
          "indexed": false,
          "internalType": "string",
          "name": "geoLocation",
          "type": "string"
        },
        {
          "indexed": false,
          "internalType": "address",
          "name": "collector",
          "type": "address"
        }
      ],
      "name": "HerbCollected",
      "type": "event"
    },
    {
      "anonymous": false,
      "inputs": [
        {
          "indexed": false,
          "internalType": "uint256",
          "name": "id",
          "type": "uint256"
        },
        {
          "indexed": false,
          "internalType": "uint256",
          "name": "batchId",
          "type": "uint256"
        },
        {
          "indexed": false,
          "internalType": "string",
          "name": "formulationDetails",
          "type": "string"
        }
      ],
      "name": "ProductLabeled",
      "type": "event"
    },
    {
      "inputs": [],
      "name": "batchCounter",
      "outputs": [
        {
          "internalType": "uint256",
          "name": "",
          "type": "uint256"
        }
      ],
      "stateMutability": "view",
      "type": "function"
    },
    {
      "inputs": [
        {
          "internalType": "uint256",
          "name": "",
          "type": "uint256"
        }
      ],
      "name": "batches",
      "outputs": [
        {
          "internalType": "uint256",
          "name": "id",
          "type": "uint256"
        },
        {
          "internalType": "string",
          "name": "processDetails",
          "type": "string"
        },
        {
          "internalType": "uint256",
          "name": "timestamp",
          "type": "uint256"
        },
        {
          "internalType": "address",
          "name": "processor",
          "type": "address"
        }
      ],
      "stateMutability": "view",
      "type": "function"
    },
    {
      "inputs": [
        {
          "internalType": "string",
          "name": "_name",
          "type": "string"
        },
        {
          "internalType": "string",
          "name": "_geoLocation",
          "type": "string"
        }
      ],
      "name": "collectHerb",
      "outputs": [],
      "stateMutability": "nonpayable",
      "type": "function"
    },
    {
      "inputs": [
        {
          "internalType": "uint256[]",
          "name": "_herbIds",
          "type": "uint256[]"
        },
        {
          "internalType": "string",
          "name": "_processDetails",
          "type": "string"
        }
      ],
      "name": "createBatch",
      "outputs": [],
      "stateMutability": "nonpayable",
      "type": "function"
    },
    {
      "inputs": [
        {
          "internalType": "uint256",
          "name": "_id",
          "type": "uint256"
        }
      ],
      "name": "getBatch",
      "outputs": [
        {
          "components": [
            {
              "internalType": "uint256",
              "name": "id",
              "type": "uint256"
            },
            {
              "internalType": "uint256[]",
              "name": "herbIds",
              "type": "uint256[]"
            },
            {
              "internalType": "string",
              "name": "processDetails",
              "type": "string"
            },
            {
              "internalType": "uint256",
              "name": "timestamp",
              "type": "uint256"
            },
            {
              "internalType": "address",
              "name": "processor",
              "type": "address"
            }
          ],
          "internalType": "struct AyurvedicTraceability.Batch",
          "name": "",
          "type": "tuple"
        }
      ],
      "stateMutability": "view",
      "type": "function"
    },
    {
      "inputs": [
        {
          "internalType": "uint256",
          "name": "_id",
          "type": "uint256"
        }
      ],
      "name": "getHerb",
      "outputs": [
        {
          "components": [
            {
              "internalType": "uint256",
              "name": "id",
              "type": "uint256"
            },
            {
              "internalType": "string",
              "name": "name",
              "type": "string"
            },
            {
              "internalType": "string",
              "name": "geoLocation",
              "type": "string"
            },
            {
              "internalType": "uint256",
              "name": "timestamp",
              "type": "uint256"
            },
            {
              "internalType": "address",
              "name": "collector",
              "type": "address"
            }
          ],
          "internalType": "struct AyurvedicTraceability.Herb",
          "name": "",
          "type": "tuple"
        }
      ],
      "stateMutability": "view",
      "type": "function"
    },
    {
      "inputs": [
        {
          "internalType": "uint256",
          "name": "_id",
          "type": "uint256"
        }
      ],
      "name": "getProduct",
      "outputs": [
        {
          "components": [
            {
              "internalType": "uint256",
              "name": "id",
              "type": "uint256"
            },
            {
              "internalType": "uint256",
              "name": "batchId",
              "type": "uint256"
            },
            {
              "internalType": "string",
              "name": "formulationDetails",
              "type": "string"
            },
            {
              "internalType": "uint256",
              "name": "timestamp",
              "type": "uint256"
            },
            {
              "internalType": "address",
              "name": "packager",
              "type": "address"
            }
          ],
          "internalType": "struct AyurvedicTraceability.Product",
          "name": "",
          "type": "tuple"
        }
      ],
      "stateMutability": "view",
      "type": "function"
    },
    {
      "inputs": [],
      "name": "herbCounter",
      "outputs": [
        {
          "internalType": "uint256",
          "name": "",
          "type": "uint256"
        }
      ],
      "stateMutability": "view",
      "type": "function"
    },
    {
      "inputs": [
        {
          "internalType": "uint256",
          "name": "",
          "type": "uint256"
        }
      ],
      "name": "herbs",
      "outputs": [
        {
          "internalType": "uint256",
          "name": "id",
          "type": "uint256"
        },
        {
          "internalType": "string",
          "name": "name",
          "type": "string"
        },
        {
          "internalType": "string",
          "name": "geoLocation",
          "type": "string"
        },
        {
          "internalType": "uint256",
          "name": "timestamp",
          "type": "uint256"
        },
        {
          "internalType": "address",
          "name": "collector",
          "type": "address"
        }
      ],
      "stateMutability": "view",
      "type": "function"
    },
    {
      "inputs": [
        {
          "internalType": "uint256",
          "name": "_batchId",
          "type": "uint256"
        },
        {
          "internalType": "string",
          "name": "_formulationDetails",
          "type": "string"
        }
      ],
      "name": "labelProduct",
      "outputs": [],
      "stateMutability": "nonpayable",
      "type": "function"
    },
    {
      "inputs": [],
      "name": "productCounter",
      "outputs": [
        {
          "internalType": "uint256",
          "name": "",
          "type": "uint256"
        }
      ],
      "stateMutability": "view",
      "type": "function"
    },
    {
      "inputs": [
        {
          "internalType": "uint256",
          "name": "",
          "type": "uint256"
        }
      ],
      "name": "products",
      "outputs": [
        {
          "internalType": "uint256",
          "name": "id",
          "type": "uint256"
        },
        {
          "internalType": "uint256",
          "name": "batchId",
          "type": "uint256"
        },
        {
          "internalType": "string",
          "name": "formulationDetails",
          "type": "string"
        },
        {
          "internalType": "uint256",
          "name": "timestamp",
          "type": "uint256"
        },
        {
          "internalType": "address",
          "name": "packager",
          "type": "address"
        }
      ],
      "stateMutability": "view",
      "type": "function"
    }
  ],
  "bytecode": "0x608060405234801561001057600080fd5b50611f7b806100206000396000f3fe608060405234801561001057600080fd5b50600436106100b45760003560e01c80637acc0b20116100715780637acc0b201461017b578063b32c4d8d146101af578063b9db15b4146101e2578063e1d02b9814610212578063e42225161461022e578063e9afa17a14610262576100b4565b80631403bf35146100b95780631f16653b146100d55780633083236e146100f357806347c7fc5d146101115780635ac442821461012d57806368233eef1461015d575b600080fd5b6100d360048036038101906100ce91906111a6565b610292565b005b6100dd6103c9565b6040516100ea9190611237565b60405180910390f35b6100fb6103cf565b6040516101089190611237565b60405180910390f35b61012b60048036038101906101269190611346565b6103d5565b005b610147600480360381019061014291906113be565b610513565b60405161015491906115e6565b60405180910390f35b6101656106e5565b6040516101729190611237565b60405180910390f35b610195600480360381019061019091906113be565b6106eb565b6040516101a6959493929190611661565b60405180910390f35b6101c960048036038101906101c491906113be565b6107c9565b6040516101d994939291906116bb565b60405180910390f35b6101fc60048036038101906101f791906113be565b6108a1565b604051610209919061177d565b60405180910390f35b61022c6004803603810190610227919061179f565b610a25565b005b610248600480360381019061024391906113be565b610ba1565b6040516102599594939291906117fb565b60405180910390f35b61027c600480360381019061027791906113be565b610d07565b60405161028991906118d9565b60405180910390f35b6000808154809291906102a49061192a565b91905055506040518060a0016040528060005481526020018381526020018281526020014281526020013373ffffffffffffffffffffffffffffffffffffffff16815250600360008054815260200190815260200160002060008201518160000155602082015181600101908161031b9190611b7e565b5060408201518160020190816103319190611b7e565b506060820151816003015560808201518160040160006101000a81548173ffffffffffffffffffffffffffffffffffffffff021916908373ffffffffffffffffffffffffffffffffffffffff1602179055509050507f9fd69798b0722d73eef3b87a722772633f471bb08145eab35a8d8f5bb659005c6000548383336040516103bd9493929190611c50565b60405180910390a15050565b60025481565b60005481565b600160008154809291906103e89061192a565b91905055506040518060a0016040528060015481526020018381526020018281526020014281526020013373ffffffffffffffffffffffffffffffffffffffff16815250600460006001548152602001908152602001600020600082015181600001556020820151816001019080519060200190610467929190610f13565b50604082015181600201908161047d9190611b7e565b506060820151816003015560808201518160040160006101000a81548173ffffffffffffffffffffffffffffffffffffffff021916908373ffffffffffffffffffffffffffffffffffffffff1602179055509050507f9275fec6d513934e824eed1648cd29641eee4a89cd9dd3f411424a2252c99b72600154838360405161050793929190611d12565b60405180910390a15050565b61051b610f60565b60008211801561052d57506001548211155b61056c576040517f08c379a000000000000000000000000000000000000000000000000000000000815260040161056390611da3565b60405180910390fd5b600460008381526020019081526020016000206040518060a001604052908160008201548152602001600182018054806020026020016040519081016040528092919081815260200182805480156105e357602002820191906000526020600020905b8154815260200190600101908083116105cf575b505050505081526020016002820180546105fc906119a1565b80601f0160208091040260200160405190810160405280929190818152602001828054610628906119a1565b80156106755780601f1061064a57610100808354040283529160200191610675565b820191906000526020600020905b81548152906001019060200180831161065857829003601f168201915b50505050508152602001600382015481526020016004820160009054906101000a900473ffffffffffffffffffffffffffffffffffffffff1673ffffffffffffffffffffffffffffffffffffffff1673ffffffffffffffffffffffffffffffffffffffff16815250509050919050565b60015481565b600560205280600052604060002060009150905080600001549080600101549080600201805461071a906119a1565b80601f0160208091040260200160405190810160405280929190818152602001828054610746906119a1565b80156107935780601f1061076857610100808354040283529160200191610793565b820191906000526020600020905b81548152906001019060200180831161077657829003601f168201915b5050505050908060030154908060040160009054906101000a900473ffffffffffffffffffffffffffffffffffffffff16905085565b60046020528060005260406000206000915090508060000154908060020180546107f2906119a1565b80601f016020809104026020016040519081016040528092919081815260200182805461081e906119a1565b801561086b5780601f106108405761010080835404028352916020019161086b565b820191906000526020600020905b81548152906001019060200180831161084e57829003601f168201915b5050505050908060030154908060040160009054906101000a900473ffffffffffffffffffffffffffffffffffffffff16905084565b6108a9610fa5565b6000821180156108bb57506002548211155b6108fa576040517f08c379a00000000000000000000000000000000000000000000000000000000081526004016108f190611e0f565b60405180910390fd5b600560008381526020019081526020016000206040518060a0016040529081600082015481526020016001820154815260200160028201805461093c906119a1565b80601f0160208091040260200160405190810160405280929190818152602001828054610968906119a1565b80156109b55780601f1061098a576101008083540402835291602001916109b5565b820191906000526020600020905b81548152906001019060200180831161099857829003601f168201915b50505050508152602001600382015481526020016004820160009054906101000a900473ffffffffffffffffffffffffffffffffffffffff1673ffffffffffffffffffffffffffffffffffffffff1673ffffffffffffffffffffffffffffffffffffffff16815250509050919050565b600082118015610a3757506001548211155b610a76576040517f08c379a0000000000000000000000000000000000000000000000000000000008152600401610a6d90611e7b565b60405180910390fd5b60026000815480929190610a899061192a565b91905055506040518060a0016040528060025481526020018381526020018281526020014281526020013373ffffffffffffffffffffffffffffffffffffffff1681525060056000600254815260200190815260200160002060008201518160000155602082015181600101556040820151816002019081610b0b9190611b7e565b506060820151816003015560808201518160040160006101000a81548173ffffffffffffffffffffffffffffffffffffffff021916908373ffffffffffffffffffffffffffffffffffffffff1602179055509050507fab8421b4886e65b11523141be8b1fd7dd4ab7f8aea4f5cfc62c0c333b16833486002548383604051610b9593929190611e9b565b60405180910390a15050565b6003602052806000526040600020600091509050806000015490806001018054610bca906119a1565b80601f0160208091040260200160405190810160405280929190818152602001828054610bf6906119a1565b8015610c435780601f10610c1857610100808354040283529160200191610c43565b820191906000526020600020905b815481529060010190602001808311610c2657829003601f168201915b505050505090806002018054610c58906119a1565b80601f0160208091040260200160405190810160405280929190818152602001828054610c84906119a1565b8015610cd15780601f10610ca657610100808354040283529160200191610cd1565b820191906000526020600020905b815481529060010190602001808311610cb457829003601f168201915b5050505050908060030154908060040160009054906101000a900473ffffffffffffffffffffffffffffffffffffffff16905085565b610d0f610fea565b600082118015610d2157506000548211155b610d60576040517f08c379a0000000000000000000000000000000000000000000000000000000008152600401610d5790611f25565b60405180910390fd5b600360008381526020019081526020016000206040518060a001604052908160008201548152602001600182018054610d98906119a1565b80601f0160208091040260200160405190810160405280929190818152602001828054610dc4906119a1565b8015610e115780601f10610de657610100808354040283529160200191610e11565b820191906000526020600020905b815481529060010190602001808311610df457829003601f168201915b50505050508152602001600282018054610e2a906119a1565b80601f0160208091040260200160405190810160405280929190818152602001828054610e56906119a1565b8015610ea35780601f10610e7857610100808354040283529160200191610ea3565b820191906000526020600020905b815481529060010190602001808311610e8657829003601f168201915b50505050508152602001600382015481526020016004820160009054906101000a900473ffffffffffffffffffffffffffffffffffffffff1673ffffffffffffffffffffffffffffffffffffffff1673ffffffffffffffffffffffffffffffffffffffff16815250509050919050565b828054828255906000526020600020908101928215610f4f579160200282015b82811115610f4e578251825591602001919060010190610f33565b5b509050610f5c919061102f565b5090565b6040518060a0016040528060008152602001606081526020016060815260200160008152602001600073ffffffffffffffffffffffffffffffffffffffff1681525090565b6040518060a0016040528060008152602001600081526020016060815260200160008152602001600073ffffffffffffffffffffffffffffffffffffffff1681525090565b6040518060a0016040528060008152602001606081526020016060815260200160008152602001600073ffffffffffffffffffffffffffffffffffffffff1681525090565b5b80821115611048576000816000905550600101611030565b5090565b6000604051905090565b600080fd5b600080fd5b600080fd5b600080fd5b6000601f19601f8301169050919050565b7f4e487b7100000000000000000000000000000000000000000000000000000000600052604160045260246000fd5b6110b38261106a565b810181811067ffffffffffffffff821117156110d2576110d161107b565b5b80604052505050565b60006110e561104c565b90506110f182826110aa565b919050565b600067ffffffffffffffff8211156111115761111061107b565b5b61111a8261106a565b9050602081019050919050565b82818337600083830152505050565b6000611149611144846110f6565b6110db565b90508281526020810184848401111561116557611164611065565b5b611170848285611127565b509392505050565b600082601f83011261118d5761118c611060565b5b813561119d848260208601611136565b91505092915050565b600080604083850312156111bd576111bc611056565b5b600083013567ffffffffffffffff8111156111db576111da61105b565b5b6111e785828601611178565b925050602083013567ffffffffffffffff8111156112085761120761105b565b5b61121485828601611178565b9150509250929050565b6000819050919050565b6112318161121e565b82525050565b600060208201905061124c6000830184611228565b92915050565b600067ffffffffffffffff82111561126d5761126c61107b565b5b602082029050602081019050919050565b600080fd5b61128c8161121e565b811461129757600080fd5b50565b6000813590506112a981611283565b92915050565b60006112c26112bd84611252565b6110db565b905080838252602082019050602084028301858111156112e5576112e461127e565b5b835b8181101561130e57806112fa888261129a565b8452602084019350506020810190506112e7565b5050509392505050565b600082601f83011261132d5761132c611060565b5b813561133d8482602086016112af565b91505092915050565b6000806040838503121561135d5761135c611056565b5b600083013567ffffffffffffffff81111561137b5761137a61105b565b5b61138785828601611318565b925050602083013567ffffffffffffffff8111156113a8576113a761105b565b5b6113b485828601611178565b9150509250929050565b6000602082840312156113d4576113d3611056565b5b60006113e28482850161129a565b91505092915050565b6113f48161121e565b82525050565b600081519050919050565b600082825260208201905092915050565b6000819050602082019050919050565b600061143283836113eb565b60208301905092915050565b6000602082019050919050565b6000611456826113fa565b6114608185611405565b935061146b83611416565b8060005b8381101561149c5781516114838882611426565b975061148e8361143e565b92505060018101905061146f565b5085935050505092915050565b600081519050919050565b600082825260208201905092915050565b60005b838110156114e35780820151818401526020810190506114c8565b60008484015250505050565b60006114fa826114a9565b61150481856114b4565b93506115148185602086016114c5565b61151d8161106a565b840191505092915050565b600073ffffffffffffffffffffffffffffffffffffffff82169050919050565b600061155382611528565b9050919050565b61156381611548565b82525050565b600060a08301600083015161158160008601826113eb565b5060208301518482036020860152611599828261144b565b915050604083015184820360408601526115b382826114ef565b91505060608301516115c860608601826113eb565b5060808301516115db608086018261155a565b508091505092915050565b600060208201905081810360008301526116008184611569565b905092915050565b600082825260208201905092915050565b6000611624826114a9565b61162e8185611608565b935061163e8185602086016114c5565b6116478161106a565b840191505092915050565b61165b81611548565b82525050565b600060a0820190506116766000830188611228565b6116836020830187611228565b81810360408301526116958186611619565b90506116a46060830185611228565b6116b16080830184611652565b9695505050505050565b60006080820190506116d06000830187611228565b81810360208301526116e28186611619565b90506116f16040830185611228565b6116fe6060830184611652565b95945050505050565b600060a08301600083015161171f60008601826113eb565b50602083015161173260208601826113eb565b506040830151848203604086015261174a82826114ef565b915050606083015161175f60608601826113eb565b506080830151611772608086018261155a565b508091505092915050565b600060208201905081810360008301526117978184611707565b905092915050565b600080604083850312156117b6576117b5611056565b5b60006117c48582860161129a565b925050602083013567ffffffffffffffff8111156117e5576117e461105b565b5b6117f185828601611178565b9150509250929050565b600060a0820190506118106000830188611228565b81810360208301526118228187611619565b905081810360408301526118368186611619565b90506118456060830185611228565b6118526080830184611652565b9695505050505050565b600060a08301600083015161187460008601826113eb565b506020830151848203602086015261188c82826114ef565b915050604083015184820360408601526118a682826114ef565b91505060608301516118bb60608601826113eb565b5060808301516118ce608086018261155a565b508091505092915050565b600060208201905081810360008301526118f3818461185c565b905092915050565b7f4e487b7100000000000000000000000000000000000000000000000000000000600052601160045260246000fd5b60006119358261121e565b91507fffffffffffffffffffffffffffffffffffffffffffffffffffffffffffffffff8203611967576119666118fb565b5b600182019050919050565b7f4e487b7100000000000000000000000000000000000000000000000000000000600052602260045260246000fd5b600060028204905060018216806119b957607f821691505b6020821081036119cc576119cb611972565b5b50919050565b60008190508160005260206000209050919050565b60006020601f8301049050919050565b600082821b905092915050565b600060088302611a347fffffffffffffffffffffffffffffffffffffffffffffffffffffffffffffffff826119f7565b611a3e86836119f7565b95508019841693508086168417925050509392505050565b6000819050919050565b6000611a7b611a76611a718461121e565b611a56565b61121e565b9050919050565b6000819050919050565b611a9583611a60565b611aa9611aa182611a82565b848454611a04565b825550505050565b600090565b611abe611ab1565b611ac9818484611a8c565b505050565b5b81811015611aed57611ae2600082611ab6565b600181019050611acf565b5050565b601f821115611b3257611b03816119d2565b611b0c846119e7565b81016020851015611b1b578190505b611b2f611b27856119e7565b830182611ace565b50505b505050565b600082821c905092915050565b6000611b5560001984600802611b37565b1980831691505092915050565b6000611b6e8383611b44565b9150826002028217905092915050565b611b87826114a9565b67ffffffffffffffff811115611ba057611b9f61107b565b5b611baa82546119a1565b611bb5828285611af1565b600060209050601f831160018114611be85760008415611bd6578287015190505b611be08582611b62565b865550611c48565b601f198416611bf6866119d2565b60005b82811015611c1e57848901518255600182019150602085019450602081019050611bf9565b86831015611c3b5784890151611c37601f891682611b44565b8355505b6001600288020188555050505b505050505050565b6000608082019050611c656000830187611228565b8181036020830152611c778186611619565b90508181036040830152611c8b8185611619565b9050611c9a6060830184611652565b95945050505050565b600082825260208201905092915050565b6000611cbf826113fa565b611cc98185611ca3565b9350611cd483611416565b8060005b83811015611d05578151611cec8882611426565b9750611cf78361143e565b925050600181019050611cd8565b5085935050505092915050565b6000606082019050611d276000830186611228565b8181036020830152611d398185611cb4565b90508181036040830152611d4d8184611619565b9050949350505050565b7f426174636820646f6573206e6f74206578697374000000000000000000000000600082015250565b6000611d8d601483611608565b9150611d9882611d57565b602082019050919050565b60006020820190508181036000830152611dbc81611d80565b9050919050565b7f50726f6475637420646f6573206e6f7420657869737400000000000000000000600082015250565b6000611df9601683611608565b9150611e0482611dc3565b602082019050919050565b60006020820190508181036000830152611e2881611dec565b9050919050565b7f496e76616c696420626174636820494400000000000000000000000000000000600082015250565b6000611e65601083611608565b9150611e7082611e2f565b602082019050919050565b60006020820190508181036000830152611e9481611e58565b9050919050565b6000606082019050611eb06000830186611228565b611ebd6020830185611228565b8181036040830152611ecf8184611619565b9050949350505050565b7f4865726220646f6573206e6f7420657869737400000000000000000000000000600082015250565b6000611f0f601383611608565b9150611f1a82611ed9565b602082019050919050565b60006020820190508181036000830152611f3e81611f02565b905091905056fea264697066735822122013813f239db3034c0ba849f30a441273e0c2d9f939d77f5f7e1ded9856dd6c2964736f6c63430008140033",
  "linkReferences": {},
  "deployedLinkReferences": {}
}